{
  "_format": "hh-sol-artifact-1",
  "contractName": "HotDropFactory",
  "sourceName": "contracts/HotDropFactory.sol",
  "abi": [
    {
      "inputs": [],
      "stateMutability": "nonpayable",
      "type": "constructor"
    },
    {
      "anonymous": false,
      "inputs": [
        {
          "indexed": true,
          "internalType": "uint256",
          "name": "projectId",
          "type": "uint256"
        },
        {
          "indexed": true,
          "internalType": "address",
          "name": "projectAddress",
          "type": "address"
        },
        {
          "indexed": false,
          "internalType": "string",
          "name": "uri",
          "type": "string"
        }
      ],
      "name": "CreateProject",
      "type": "event"
    },
    {
      "inputs": [],
      "name": "administrator",
      "outputs": [
        {
          "internalType": "address",
          "name": "",
          "type": "address"
        }
      ],
      "stateMutability": "view",
      "type": "function"
    },
    {
      "inputs": [
        {
          "internalType": "address",
          "name": "projectAddress",
          "type": "address"
        },
        {
          "internalType": "string",
          "name": "uri",
          "type": "string"
        }
      ],
      "name": "createProject",
      "outputs": [
        {
          "internalType": "uint256",
          "name": "",
          "type": "uint256"
        }
      ],
      "stateMutability": "nonpayable",
      "type": "function"
    },
    {
      "inputs": [
        {
          "internalType": "address",
          "name": "",
          "type": "address"
        }
      ],
      "name": "isProjectAddress",
      "outputs": [
        {
          "internalType": "uint256",
          "name": "",
          "type": "uint256"
        }
      ],
      "stateMutability": "view",
      "type": "function"
    },
    {
      "inputs": [
        {
          "internalType": "uint256",
          "name": "projectId",
          "type": "uint256"
        }
      ],
      "name": "projectIdToTokenAddress",
      "outputs": [
        {
          "internalType": "address",
          "name": "",
          "type": "address"
        }
      ],
      "stateMutability": "view",
      "type": "function"
    },
    {
      "inputs": [
        {
          "internalType": "uint256",
          "name": "",
          "type": "uint256"
        }
      ],
      "name": "projects",
      "outputs": [
        {
          "internalType": "address",
          "name": "projectAddress",
          "type": "address"
        },
        {
          "internalType": "bool",
          "name": "active",
          "type": "bool"
        },
        {
          "internalType": "string",
          "name": "uri",
          "type": "string"
        }
      ],
      "stateMutability": "view",
      "type": "function"
    }
  ],
  "bytecode": "0x608060405234801561001057600080fd5b5033600360006101000a81548173ffffffffffffffffffffffffffffffffffffffff021916908373ffffffffffffffffffffffffffffffffffffffff160217905550610fdf806100616000396000f3fe608060405234801561001057600080fd5b50600436106100575760003560e01c8063107046bd1461005c57806338b3ee0b1461008e578063c5cca334146100be578063e166c71d146100ee578063f53d0a8e1461011e575b600080fd5b61007660048036038101906100719190610a29565b61013c565b60405161008593929190610b93565b60405180910390f35b6100a860048036038101906100a39190610983565b61021b565b6040516100b59190610c4c565b60405180910390f35b6100d860048036038101906100d391906109ac565b610233565b6040516100e59190610c4c565b60405180910390f35b61010860048036038101906101039190610a29565b610612565b6040516101159190610b78565b60405180910390f35b610126610652565b6040516101339190610b78565b60405180910390f35b60016020528060005260406000206000915090508060000160009054906101000a900473ffffffffffffffffffffffffffffffffffffffff16908060000160149054906101000a900460ff169080600101805461019890610da5565b80601f01602080910402602001604051908101604052809291908181526020018280546101c490610da5565b80156102115780601f106101e657610100808354040283529160200191610211565b820191906000526020600020905b8154815290600101906020018083116101f457829003601f168201915b5050505050905083565b60026020528060005260406000206000915090505481565b6000600360009054906101000a900473ffffffffffffffffffffffffffffffffffffffff1673ffffffffffffffffffffffffffffffffffffffff163373ffffffffffffffffffffffffffffffffffffffff16146102c5576040517f08c379a00000000000000000000000000000000000000000000000000000000081526004016102bc90610c2c565b60405180910390fd5b826102d7816380ac58cd60e01b610678565b610316576040517f08c379a000000000000000000000000000000000000000000000000000000000815260040161030d90610c0c565b60405180910390fd5b6000600260008673ffffffffffffffffffffffffffffffffffffffff1673ffffffffffffffffffffffffffffffffffffffff1681526020019081526020016000205414610398576040517f08c379a000000000000000000000000000000000000000000000000000000000815260040161038f90610bec565b60405180910390fd5b6103a2600061069d565b60006103ae60006106b3565b905080600260008773ffffffffffffffffffffffffffffffffffffffff1673ffffffffffffffffffffffffffffffffffffffff168152602001908152602001600020819055506000600160008381526020019081526020016000206040518060600160405290816000820160009054906101000a900473ffffffffffffffffffffffffffffffffffffffff1673ffffffffffffffffffffffffffffffffffffffff1673ffffffffffffffffffffffffffffffffffffffff1681526020016000820160149054906101000a900460ff1615151515815260200160018201805461049590610da5565b80601f01602080910402602001604051908101604052809291908181526020018280546104c190610da5565b801561050e5780601f106104e35761010080835404028352916020019161050e565b820191906000526020600020905b8154815290600101906020018083116104f157829003601f168201915b505050505081525050905085816000019073ffffffffffffffffffffffffffffffffffffffff16908173ffffffffffffffffffffffffffffffffffffffff16815250506001816020019015159081151581525050848160400181905250806001600084815260200190815260200160002060008201518160000160006101000a81548173ffffffffffffffffffffffffffffffffffffffff021916908373ffffffffffffffffffffffffffffffffffffffff16021790555060208201518160000160146101000a81548160ff0219169083151502179055506040820151816001019080519060200190610602929190610839565b5090505081935050505092915050565b60006001600083815260200190815260200160002060000160009054906101000a900473ffffffffffffffffffffffffffffffffffffffff169050919050565b600360009054906101000a900473ffffffffffffffffffffffffffffffffffffffff1681565b6000610683836106c1565b80156106955750610694838361070e565b5b905092915050565b6001816000016000828254019250508190555050565b600081600001549050919050565b60006106ed827f01ffc9a70000000000000000000000000000000000000000000000000000000061070e565b801561070757506107058263ffffffff60e01b61070e565b155b9050919050565b6000806301ffc9a760e01b8360405160240161072a9190610bd1565b604051602081830303815290604052907bffffffffffffffffffffffffffffffffffffffffffffffffffffffff19166020820180517bffffffffffffffffffffffffffffffffffffffffffffffffffffffff838183161783525050505090506000808573ffffffffffffffffffffffffffffffffffffffff16617530846040516107b49190610b61565b6000604051808303818686fa925050503d80600081146107f0576040519150601f19603f3d011682016040523d82523d6000602084013e6107f5565b606091505b50915091506020815110156108105760009350505050610833565b81801561082d57508080602001905181019061082c9190610a00565b5b93505050505b92915050565b82805461084590610da5565b90600052602060002090601f01602090048101928261086757600085556108ae565b82601f1061088057805160ff19168380011785556108ae565b828001600101855582156108ae579182015b828111156108ad578251825591602001919060010190610892565b5b5090506108bb91906108bf565b5090565b5b808211156108d85760008160009055506001016108c0565b5090565b60006108ef6108ea84610c8c565b610c67565b90508281526020810184848401111561090757600080fd5b610912848285610d63565b509392505050565b60008135905061092981610f64565b92915050565b60008151905061093e81610f7b565b92915050565b600082601f83011261095557600080fd5b81356109658482602086016108dc565b91505092915050565b60008135905061097d81610f92565b92915050565b60006020828403121561099557600080fd5b60006109a38482850161091a565b91505092915050565b600080604083850312156109bf57600080fd5b60006109cd8582860161091a565b925050602083013567ffffffffffffffff8111156109ea57600080fd5b6109f685828601610944565b9150509250929050565b600060208284031215610a1257600080fd5b6000610a208482850161092f565b91505092915050565b600060208284031215610a3b57600080fd5b6000610a498482850161096e565b91505092915050565b610a5b81610cef565b82525050565b610a6a81610d01565b82525050565b610a7981610d0d565b82525050565b6000610a8a82610cbd565b610a948185610cd3565b9350610aa4818560208601610d72565b80840191505092915050565b6000610abb82610cc8565b610ac58185610cde565b9350610ad5818560208601610d72565b610ade81610e66565b840191505092915050565b6000610af6602b83610cde565b9150610b0182610e77565b604082019050919050565b6000610b19602a83610cde565b9150610b2482610ec6565b604082019050919050565b6000610b3c602783610cde565b9150610b4782610f15565b604082019050919050565b610b5b81610d59565b82525050565b6000610b6d8284610a7f565b915081905092915050565b6000602082019050610b8d6000830184610a52565b92915050565b6000606082019050610ba86000830186610a52565b610bb56020830185610a61565b8181036040830152610bc78184610ab0565b9050949350505050565b6000602082019050610be66000830184610a70565b92915050565b60006020820190508181036000830152610c0581610ae9565b9050919050565b60006020820190508181036000830152610c2581610b0c565b9050919050565b60006020820190508181036000830152610c4581610b2f565b9050919050565b6000602082019050610c616000830184610b52565b92915050565b6000610c71610c82565b9050610c7d8282610dd7565b919050565b6000604051905090565b600067ffffffffffffffff821115610ca757610ca6610e37565b5b610cb082610e66565b9050602081019050919050565b600081519050919050565b600081519050919050565b600081905092915050565b600082825260208201905092915050565b6000610cfa82610d39565b9050919050565b60008115159050919050565b60007fffffffff0000000000000000000000000000000000000000000000000000000082169050919050565b600073ffffffffffffffffffffffffffffffffffffffff82169050919050565b6000819050919050565b82818337600083830152505050565b60005b83811015610d90578082015181840152602081019050610d75565b83811115610d9f576000848401525b50505050565b60006002820490506001821680610dbd57607f821691505b60208210811415610dd157610dd0610e08565b5b50919050565b610de082610e66565b810181811067ffffffffffffffff82111715610dff57610dfe610e37565b5b80604052505050565b7f4e487b7100000000000000000000000000000000000000000000000000000000600052602260045260246000fd5b7f4e487b7100000000000000000000000000000000000000000000000000000000600052604160045260246000fd5b6000601f19601f8301169050919050565b7f54686973204e46542050726f6a65637420416c7265616479204578697374732060008201527f496e20486f7444726f7021000000000000000000000000000000000000000000602082015250565b7f54686973206973206e6f74206120737570706f7274656420636f6e747261637460008201527f20696e7465726661636500000000000000000000000000000000000000000000602082015250565b7f596f7520617265206e6f742074686520686f742064726f7020666163746f727960008201527f2061646d696e2100000000000000000000000000000000000000000000000000602082015250565b610f6d81610cef565b8114610f7857600080fd5b50565b610f8481610d01565b8114610f8f57600080fd5b50565b610f9b81610d59565b8114610fa657600080fd5b5056fea2646970667358221220c7f490415073cb4fd50e0e290772496475b8e3ea2aa9ed71d5fc2c35167c5b6564736f6c63430008040033",
  "linkReferences": {},
  "deployedLinkReferences": {}
}