{
  "_format": "hh-sol-artifact-1",
  "contractName": "HotDropBroker",
  "sourceName": "contracts/HotDropBroker.sol",
  "abi": [
    {
      "inputs": [
        {
          "internalType": "address",
          "name": "_hotDropFactory",
          "type": "address"
        },
        {
          "internalType": "address",
          "name": "_profitReceiver",
          "type": "address"
        },
        {
          "internalType": "uint128",
          "name": "_feeRate",
          "type": "uint128"
        }
      ],
      "stateMutability": "nonpayable",
      "type": "constructor"
    },
    {
      "anonymous": false,
      "inputs": [
        {
          "indexed": true,
          "internalType": "address",
          "name": "_bot",
          "type": "address"
        },
        {
          "indexed": true,
          "internalType": "address",
          "name": "_user",
          "type": "address"
        },
        {
          "indexed": true,
          "internalType": "uint256",
          "name": "_hotDropProjectId",
          "type": "uint256"
        },
        {
          "indexed": false,
          "internalType": "uint256",
          "name": "_priceInWeiEach",
          "type": "uint256"
        },
        {
          "indexed": false,
          "internalType": "uint256",
          "name": "_quantity",
          "type": "uint256"
        },
        {
          "indexed": false,
          "internalType": "uint256",
          "name": "_brokerFee",
          "type": "uint256"
        },
        {
          "indexed": false,
          "internalType": "uint256",
          "name": "_botFee",
          "type": "uint256"
        }
      ],
      "name": "FulfillOrder",
      "type": "event"
    },
    {
      "anonymous": false,
      "inputs": [
        {
          "indexed": true,
          "internalType": "address",
          "name": "_user",
          "type": "address"
        },
        {
          "indexed": true,
          "internalType": "uint256",
          "name": "_hotDropProjectId",
          "type": "uint256"
        },
        {
          "indexed": false,
          "internalType": "uint256",
          "name": "_priceInWeiEach",
          "type": "uint256"
        },
        {
          "indexed": false,
          "internalType": "uint256",
          "name": "_quantity",
          "type": "uint256"
        }
      ],
      "name": "PlaceOrder",
      "type": "event"
    },
    {
      "inputs": [],
      "name": "HOTDROP_FACTORY",
      "outputs": [
        {
          "internalType": "contract IHotDropFactory",
          "name": "",
          "type": "address"
        }
      ],
      "stateMutability": "view",
      "type": "function"
    },
    {
      "inputs": [
        {
          "internalType": "address",
          "name": "",
          "type": "address"
        }
      ],
      "name": "balances",
      "outputs": [
        {
          "internalType": "uint256",
          "name": "",
          "type": "uint256"
        }
      ],
      "stateMutability": "view",
      "type": "function"
    },
    {
      "inputs": [
        {
          "internalType": "address",
          "name": "_user",
          "type": "address"
        },
        {
          "internalType": "uint256",
          "name": "_hotDropProjectId",
          "type": "uint256"
        },
        {
          "internalType": "uint256",
          "name": "_tokenId",
          "type": "uint256"
        },
        {
          "internalType": "uint256",
          "name": "_expectedpriceInWeiEach",
          "type": "uint256"
        },
        {
          "internalType": "address",
          "name": "_profitTo",
          "type": "address"
        }
      ],
      "name": "fulfillOrder",
      "outputs": [
        {
          "internalType": "uint256",
          "name": "",
          "type": "uint256"
        }
      ],
      "stateMutability": "nonpayable",
      "type": "function"
    },
    {
      "inputs": [],
      "name": "hotDropBroker",
      "outputs": [
        {
          "internalType": "address",
          "name": "",
          "type": "address"
        }
      ],
      "stateMutability": "view",
      "type": "function"
    },
    {
      "inputs": [],
      "name": "hotDropBrokerFeeRate",
      "outputs": [
        {
          "internalType": "uint128",
          "name": "",
          "type": "uint128"
        }
      ],
      "stateMutability": "view",
      "type": "function"
    },
    {
      "inputs": [],
      "name": "hotDropFactory",
      "outputs": [
        {
          "internalType": "address",
          "name": "",
          "type": "address"
        }
      ],
      "stateMutability": "view",
      "type": "function"
    },
    {
      "inputs": [],
      "name": "hotDropsProfitReceiver",
      "outputs": [
        {
          "internalType": "address",
          "name": "",
          "type": "address"
        }
      ],
      "stateMutability": "view",
      "type": "function"
    },
    {
      "inputs": [
        {
          "internalType": "uint256",
          "name": "",
          "type": "uint256"
        },
        {
          "internalType": "address",
          "name": "",
          "type": "address"
        }
      ],
      "name": "orders",
      "outputs": [
        {
          "internalType": "uint256",
          "name": "quantity",
          "type": "uint256"
        },
        {
          "internalType": "uint256",
          "name": "priceInWeiEach",
          "type": "uint256"
        }
      ],
      "stateMutability": "view",
      "type": "function"
    },
    {
      "inputs": [
        {
          "internalType": "uint256",
          "name": "_hotDropProjectId",
          "type": "uint256"
        },
        {
          "internalType": "uint128",
          "name": "quantity",
          "type": "uint128"
        }
      ],
      "name": "placeOrder",
      "outputs": [],
      "stateMutability": "payable",
      "type": "function"
    },
    {
      "inputs": [
        {
          "internalType": "address",
          "name": "_user",
          "type": "address"
        },
        {
          "internalType": "uint256",
          "name": "_hotDropProjectId",
          "type": "uint256"
        }
      ],
      "name": "viewOrder",
      "outputs": [
        {
          "components": [
            {
              "internalType": "uint256",
              "name": "quantity",
              "type": "uint256"
            },
            {
              "internalType": "uint256",
              "name": "priceInWeiEach",
              "type": "uint256"
            }
          ],
          "internalType": "struct HotDropBroker.Order",
          "name": "",
          "type": "tuple"
        }
      ],
      "stateMutability": "view",
      "type": "function"
    }
  ],
  "bytecode": "0x60806040523480156200001157600080fd5b5060405162001880380380620018808339818101604052810190620000379190620001cc565b33600160006101000a81548173ffffffffffffffffffffffffffffffffffffffff021916908373ffffffffffffffffffffffffffffffffffffffff16021790555082600260006101000a81548173ffffffffffffffffffffffffffffffffffffffff021916908373ffffffffffffffffffffffffffffffffffffffff16021790555081600360006101000a81548173ffffffffffffffffffffffffffffffffffffffff021916908373ffffffffffffffffffffffffffffffffffffffff16021790555080600460006101000a8154816fffffffffffffffffffffffffffffffff02191690836fffffffffffffffffffffffffffffffff160217905550600260009054906101000a900473ffffffffffffffffffffffffffffffffffffffff166000806101000a81548173ffffffffffffffffffffffffffffffffffffffff021916908373ffffffffffffffffffffffffffffffffffffffff160217905550505050620002a6565b600081519050620001af8162000272565b92915050565b600081519050620001c6816200028c565b92915050565b600080600060608486031215620001e257600080fd5b6000620001f2868287016200019e565b935050602062000205868287016200019e565b92505060406200021886828701620001b5565b9150509250925092565b60006200022f8262000252565b9050919050565b60006fffffffffffffffffffffffffffffffff82169050919050565b600073ffffffffffffffffffffffffffffffffffffffff82169050919050565b6200027d8162000222565b81146200028957600080fd5b50565b620002978162000236565b8114620002a357600080fd5b50565b6115ca80620002b66000396000f3fe6080604052600436106100915760003560e01c80634f140aee116100595780634f140aee146101a35780636caddb04146101ce5780638fe677e71461020c578063b421a1ea14610237578063f827b1a31461026257610091565b806301055cf7146100965780631746ccc0146100c157806327e235e3146100fe578063459411011461013b578063471b8efd14610166575b600080fd5b3480156100a257600080fd5b506100ab61027e565b6040516100b89190610f7d565b60405180910390f35b3480156100cd57600080fd5b506100e860048036038101906100e39190610c8d565b6102a4565b6040516100f591906110ca565b60405180910390f35b34801561010a57600080fd5b5061012560048036038101906101209190610c3b565b610323565b6040516101329190611100565b60405180910390f35b34801561014757600080fd5b5061015061033b565b60405161015d91906110e5565b60405180910390f35b34801561017257600080fd5b5061018d60048036038101906101889190610cc9565b61035d565b60405161019a9190611100565b60405180910390f35b3480156101af57600080fd5b506101b861077b565b6040516101c59190610fcf565b60405180910390f35b3480156101da57600080fd5b506101f560048036038101906101f09190610d40565b61079f565b604051610203929190611189565b60405180910390f35b34801561021857600080fd5b506102216107d0565b60405161022e9190610f7d565b60405180910390f35b34801561024357600080fd5b5061024c6107f6565b6040516102599190610f7d565b60405180910390f35b61027c60048036038101906102779190610d7c565b61081c565b005b600160009054906101000a900473ffffffffffffffffffffffffffffffffffffffff1681565b6102ac610bcd565b6005600083815260200190815260200160002060008473ffffffffffffffffffffffffffffffffffffffff1673ffffffffffffffffffffffffffffffffffffffff16815260200190815260200160002060405180604001604052908160008201548152602001600182015481525050905092915050565b60066020528060005260406000206000915090505481565b600460009054906101000a90046fffffffffffffffffffffffffffffffff1681565b6000806005600087815260200190815260200160002060008873ffffffffffffffffffffffffffffffffffffffff1673ffffffffffffffffffffffffffffffffffffffff1681526020019081526020016000206040518060400160405290816000820154815260200160018201548152505090506000816000015111610418576040517f08c379a000000000000000000000000000000000000000000000000000000000815260040161040f906110aa565b60405180910390fd5b838160200151101561045f576040517f08c379a00000000000000000000000000000000000000000000000000000000081526004016104569061106a565b60405180910390fd5b6001816000015161047091906112af565b6005600088815260200190815260200160002060008973ffffffffffffffffffffffffffffffffffffffff1673ffffffffffffffffffffffffffffffffffffffff1681526020019081526020016000206000018190555060006064600460009054906101000a90046fffffffffffffffffffffffffffffffff166fffffffffffffffffffffffffffffffff16836020015161050b9190611255565b6105159190611224565b90508060066000600360009054906101000a900473ffffffffffffffffffffffffffffffffffffffff1673ffffffffffffffffffffffffffffffffffffffff1673ffffffffffffffffffffffffffffffffffffffff168152602001908152602001600020600082825461058891906111ce565b9250508190555060008060009054906101000a900473ffffffffffffffffffffffffffffffffffffffff1673ffffffffffffffffffffffffffffffffffffffff1663e166c71d896040518263ffffffff1660e01b81526004016105eb9190611100565b60206040518083038186803b15801561060357600080fd5b505afa158015610617573d6000803e3d6000fd5b505050506040513d601f19601f8201168201806040525081019061063b9190610c64565b90508073ffffffffffffffffffffffffffffffffffffffff166342842e0e338b8a6040518463ffffffff1660e01b815260040161067a93929190610f98565b600060405180830381600087803b15801561069457600080fd5b505af11580156106a8573d6000803e3d6000fd5b505050506000600460009054906101000a90046fffffffffffffffffffffffffffffffff166fffffffffffffffffffffffffffffffff1684602001516106ee91906112af565b90506106fa8682610ad9565b888a73ffffffffffffffffffffffffffffffffffffffff163373ffffffffffffffffffffffffffffffffffffffff167f1faa0ed9c1053030907795cb4cf3a84a3c2bf78f24f48d8d9869e6a9854fdd76876020015160018887604051610763949392919061111b565b60405180910390a48094505050505095945050505050565b60008054906101000a900473ffffffffffffffffffffffffffffffffffffffff1681565b6005602052816000526040600020602052806000526040600020600091509150508060000154908060010154905082565b600260009054906101000a900473ffffffffffffffffffffffffffffffffffffffff1681565b600360009054906101000a900473ffffffffffffffffffffffffffffffffffffffff1681565b6000341161085f576040517f08c379a000000000000000000000000000000000000000000000000000000000815260040161085690610fea565b60405180910390fd5b6001816fffffffffffffffffffffffffffffffff16146108b4576040517f08c379a00000000000000000000000000000000000000000000000000000000081526004016108ab9061102a565b60405180910390fd5b60006005600084815260200190815260200160002060003373ffffffffffffffffffffffffffffffffffffffff1673ffffffffffffffffffffffffffffffffffffffff16815260200190815260200160002060405180604001604052908160008201548152602001600182015481525050905060008160000151826020015161093d9190611255565b1461097d576040517f08c379a00000000000000000000000000000000000000000000000000000000081526004016109749061108a565b60405180910390fd5b346005600085815260200190815260200160002060003373ffffffffffffffffffffffffffffffffffffffff1673ffffffffffffffffffffffffffffffffffffffff16815260200190815260200160002060010181905550816fffffffffffffffffffffffffffffffff166005600085815260200190815260200160002060003373ffffffffffffffffffffffffffffffffffffffff1673ffffffffffffffffffffffffffffffffffffffff1681526020019081526020016000206000018190555034600660003373ffffffffffffffffffffffffffffffffffffffff1673ffffffffffffffffffffffffffffffffffffffff16815260200190815260200160002081905550823373ffffffffffffffffffffffffffffffffffffffff167f40afdaec59002923ed418aa433e0b295c975fdb4daa5a903342c1a231b752a213485604051610acc929190611160565b60405180910390a3505050565b80471015610b1c576040517f08c379a0000000000000000000000000000000000000000000000000000000008152600401610b139061104a565b60405180910390fd5b60008273ffffffffffffffffffffffffffffffffffffffff1682604051610b4290610f68565b60006040518083038185875af1925050503d8060008114610b7f576040519150601f19603f3d011682016040523d82523d6000602084013e610b84565b606091505b5050905080610bc8576040517f08c379a0000000000000000000000000000000000000000000000000000000008152600401610bbf9061100a565b60405180910390fd5b505050565b604051806040016040528060008152602001600081525090565b600081359050610bf68161154f565b92915050565b600081519050610c0b8161154f565b92915050565b600081359050610c2081611566565b92915050565b600081359050610c358161157d565b92915050565b600060208284031215610c4d57600080fd5b6000610c5b84828501610be7565b91505092915050565b600060208284031215610c7657600080fd5b6000610c8484828501610bfc565b91505092915050565b60008060408385031215610ca057600080fd5b6000610cae85828601610be7565b9250506020610cbf85828601610c26565b9150509250929050565b600080600080600060a08688031215610ce157600080fd5b6000610cef88828901610be7565b9550506020610d0088828901610c26565b9450506040610d1188828901610c26565b9350506060610d2288828901610c26565b9250506080610d3388828901610be7565b9150509295509295909350565b60008060408385031215610d5357600080fd5b6000610d6185828601610c26565b9250506020610d7285828601610be7565b9150509250929050565b60008060408385031215610d8f57600080fd5b6000610d9d85828601610c26565b9250506020610dae85828601610c11565b9150509250929050565b610dc1816112e3565b82525050565b610dd08161133b565b82525050565b610ddf8161135f565b82525050565b6000610df2601d836111bd565b9150610dfd826113e1565b602082019050919050565b6000610e15603a836111bd565b9150610e208261140a565b604082019050919050565b6000610e386035836111bd565b9150610e4382611459565b604082019050919050565b6000610e5b601d836111bd565b9150610e66826114a8565b602082019050919050565b6000610e7e6017836111bd565b9150610e89826114d1565b602082019050919050565b6000610ea1601b836111bd565b9150610eac826114fa565b602082019050919050565b6000610ec46000836111b2565b9150610ecf82611523565b600082019050919050565b6000610ee76019836111bd565b9150610ef282611526565b602082019050919050565b604082016000820151610f136000850182610f4a565b506020820151610f266020850182610f4a565b50505050565b610f35816112f5565b82525050565b610f4481611371565b82525050565b610f5381611331565b82525050565b610f6281611331565b82525050565b6000610f7382610eb7565b9150819050919050565b6000602082019050610f926000830184610db8565b92915050565b6000606082019050610fad6000830186610db8565b610fba6020830185610db8565b610fc76040830184610f59565b949350505050565b6000602082019050610fe46000830184610dc7565b92915050565b6000602082019050818103600083015261100381610de5565b9050919050565b6000602082019050818103600083015261102381610e08565b9050919050565b6000602082019050818103600083015261104381610e2b565b9050919050565b6000602082019050818103600083015261106381610e4e565b9050919050565b6000602082019050818103600083015261108381610e71565b9050919050565b600060208201905081810360008301526110a381610e94565b9050919050565b600060208201905081810360008301526110c381610eda565b9050919050565b60006040820190506110df6000830184610efd565b92915050565b60006020820190506110fa6000830184610f2c565b92915050565b60006020820190506111156000830184610f59565b92915050565b60006080820190506111306000830187610f59565b61113d6020830186610dd6565b61114a6040830185610f59565b6111576060830184610f59565b95945050505050565b60006040820190506111756000830185610f59565b6111826020830184610f3b565b9392505050565b600060408201905061119e6000830185610f59565b6111ab6020830184610f59565b9392505050565b600081905092915050565b600082825260208201905092915050565b60006111d982611331565b91506111e483611331565b9250827fffffffffffffffffffffffffffffffffffffffffffffffffffffffffffffffff0382111561121957611218611383565b5b828201905092915050565b600061122f82611331565b915061123a83611331565b92508261124a576112496113b2565b5b828204905092915050565b600061126082611331565b915061126b83611331565b9250817fffffffffffffffffffffffffffffffffffffffffffffffffffffffffffffffff04831182151516156112a4576112a3611383565b5b828202905092915050565b60006112ba82611331565b91506112c583611331565b9250828210156112d8576112d7611383565b5b828203905092915050565b60006112ee82611311565b9050919050565b60006fffffffffffffffffffffffffffffffff82169050919050565b600073ffffffffffffffffffffffffffffffffffffffff82169050919050565b6000819050919050565b60006113468261134d565b9050919050565b600061135882611311565b9050919050565b600061136a82611331565b9050919050565b600061137c826112f5565b9050919050565b7f4e487b7100000000000000000000000000000000000000000000000000000000600052601160045260246000fd5b7f4e487b7100000000000000000000000000000000000000000000000000000000600052601260045260246000fd5b7f5a65726f20776569206f6666657273206e6f742061636365707465642e000000600082015250565b7f416464726573733a20756e61626c6520746f2073656e642076616c75652c207260008201527f6563697069656e74206d61792068617665207265766572746564000000000000602082015250565b7f77652063757272656e746c7920646f6e7420737570706f7274206d6f7265207460008201527f68616e206f6e65206e667420617420612074696d650000000000000000000000602082015250565b7f416464726573733a20696e73756666696369656e742062616c616e6365000000600082015250565b7f75736572206f6666657220696e73756666696369656e74000000000000000000600082015250565b7f596f7520616c726561647920706c6163656420616e206f726465720000000000600082015250565b50565b7f75736572206f7264657220646f6573206e6f7420657869737400000000000000600082015250565b611558816112e3565b811461156357600080fd5b50565b61156f816112f5565b811461157a57600080fd5b50565b61158681611331565b811461159157600080fd5b5056fea26469706673582212209b13738a8aaf55849b8d201c07474efca5b83b8c9baa5900c9bdcdca4c6bb3f864736f6c63430008040033",
  "linkReferences": {},
  "deployedLinkReferences": {}
}